:060000000A128A11002A19
:100200008A010A148207C034F934A434B034993412
:1002100092348234F8348034903488348334C63451
:06022000A13486348E3487
:1004000059226D223D22031383120B11382232220E
:100410008519242286184822221A362206184F22CD
:1004200022080F39002187001622052A0301031133
:100430000808220203191D2A232A88018501A30125
:100440000914742209100800051D272208008518C8
:100450002A220800051CA30A23088800231AA301E6
:1004600085010800850A051A85010800A201080017
:100470009E3081000B1D3A2A080083160313811257
:100480008111011581140114831203130B1108004B
:100490007A228618492AA20A221A362208007A22CB
:1004A0000618502AA203A21A562208000F30A200F2
:1004B0000800831603178801890183160313850139
:1004C00087018801890186140614831203138501AC
:1004D0008701A201880189010800031383160F1305
:1004E0008F160F160F1408003230A1007A22A10BCC
:0E04F000762A0800A030A000A00B7C2A08008D
:04400E00D420FF3F7C
:00000001FF
